:0C0000000C943D000C948C000C946D00DE
:10000C000C9400000C9400000C9400000C94000064
:10001C000C9400000C9400000C94AF000C940000A5
:10002C000C9400000C9400000C9400000C94000044
:10003C000C9400000C9400000C9400000C94000034
:10004C000C9400000C9400000000000000002D4EE9
:10005C00414E000001002D4E414E00494E4600001D
:10006C000500040054000100620260000000F894D6
:10007C00EE27ECBBF1E0FBBFEBBFE5BFF8E1F1BD58
:10008C00E1BD8DE0A2E0BB27ED938A95E9F780E016
:10009C0098E0A0E6ED930197E9F7ECE6F0E08591A6
:1000AC009591009761F0A591B59105901590BF01C0
:1000BC00F00105900D920197E1F7FB01F0CFEFE510
:1000CC00EDBFE8E0EEBFC0E6D2E00C94FB00EA9393
:1000DC00FA93EFB7EA93E0916002E03049F4E5B7A8
:1000EC00EB7FE5BFE1E0E09360020E9433010DC0BD
:1000FC00E0E0EEBDE5B7E460E5BFE0E0E093600270
:10010C004CB45DB47724E1E09E2E1EC0EA93FA93C2
:10011C00EFB7EA93E0916102E03049F4E5B7EE7F86
:10012C00E5BFE1E0E09361020E9433010DC0E0E025
:10013C00EEBDE5B7E160E5BFE0E0E09361024CB4F1
:10014C005DB46624E1E08E2EE991EFBFF991E9915F
:10015C001895EA93EFB77724992466248824EFBF87
:10016C00E9911895C0988BE68A95F1F7C09AE1E071
:10017C007E2E0895C1988BE68A95F1F7C19AE1E03D
:10018C006E2E0895AA93A881AC3611F4EAE00EC045
:10019C00A881A23711F4E5E009C0A881A63611F4B4
:1001AC00E9E004C0A881A23611F4E6E0E5BB219693
:1001BC000895AA932497AC81A13051F4D3DF78949D
:1001CC007720F1F7992019F0F8940E943A0109C0B0
:1001DC00D1DF78946620F1F7882019F0F8940E940A
:1001EC003A010E943F0225960895E0E0EBBBEABB82
:1001FC00E8BBE3E0E7BBE0E0E5BBEFE0E4BBE0E05D
:10020C00E2BBE1BBEFBDEEBDEDBDECBDE7BDE6BDB8
:10021C00EBBDEABDE9BDE8BDEBB7E06CEBBFEFE0D1
:10022C00E5BFE0E0E4BFE0ECEABFB89AB99AE4E0DD
:10023C00E9BFA6E6A7DF0E945401E8F30E9454012F
:10024C0050F4A2E70E946001A6E60E946001ACE6B1
:10025C000E946001F3CFEDCFFFCFE0E0F0E0FDBDF9
:10026C00ECBDE1E0EEBD0895F201662777270E9410
:10027C009F01DF01CB01E0E0F0E060E871E40E9457
:10028C00CD010E9449020E944402E0E0F0E060E6E9
:10029C0072E40E94CD010E9449020895A1E00E94DF
:1002AC00DF00DF01CB01E0E0F0E060EA71E40E94E6
:1002BC00120208950E94C800A4E6B0E00C946601F6
:1002CC00109639F080EA9FE00197F1F7A895119705
:1002DC00C9F70895552342F4503811F4E0FF04C0D7
:1002EC003196691F791F6BF050E8572711F45F9313
:1002FC003CC05F3F31F0660F000C57956795752F2A
:10030C0008955F9300200AF03CC035C050E8192EC8
:10031C001522880F991F9527550F879550E8072EA2
:10032C000522660F771F7527550F679508956894FA
:10033C0001C0E894309760407040B1F0002426F082
:10034C00772312F4009488D0172E7EE1112032F01E
:10035C007A95EE0FFF1F661F111CF9CFEF2FF62FAA
:10036C00612D5F93C1DF5F910895EE27FF2766270C
:10037C0077275F910895EFEFFFEF6FE77FEF5F91C6
:10038C000895EFEFFFEF6FE77FE75F9108955F93BD
:10039C00BDDF703821F411200AF4EDCFF2CF903884
:1003AC0009F4E3CF01240894970B1BF4D4F3002039
:1003BC00F3CF792F1F932F933F934F931124112732
:1003CC00222733274427552790E2AE17BF0786070D
:1003DC00410730F0AE1BBF0B860B410B089401C0DC
:1003EC008894551F221F331F111CAA1FBB1F881F67
:1003FC00441F9A9551F7F901612D4F913F912F911F
:10040C001F91662332F0550FEE1FFF1F661F7A9562
:10041C0043F260DF5F91089599239AF0772342F0BD
:10042C00971748F029F4AE17BF07860720F031F074
:10043C00989488940895989408940895189488949E
:10044C0008957723C2F7971798F3A9F7EA17FB07D4
:10045C00680788F399F3ECCFF09560957095E1956A
:10046C00FF4F6F4F7F4F08956F2F660F660B762FE0
:10047C000895E881F9816A817B810895A881B98109
:10048C008A819B810895E883F9836A837B8308952D
:00000001FF
